{
  "contractName": "Devote",
  "abi": [
    {
      "anonymous": false,
      "inputs": [
        {
          "indexed": false,
          "internalType": "uint256",
          "name": "id",
          "type": "uint256"
        },
        {
          "indexed": false,
          "internalType": "uint256",
          "name": "time",
          "type": "uint256"
        }
      ],
      "name": "PollEnd",
      "type": "event"
    },
    {
      "anonymous": false,
      "inputs": [
        {
          "indexed": false,
          "internalType": "uint256",
          "name": "id",
          "type": "uint256"
        },
        {
          "indexed": false,
          "internalType": "address",
          "name": "voter",
          "type": "address"
        }
      ],
      "name": "Vote",
      "type": "event"
    },
    {
      "inputs": [
        {
          "internalType": "uint256",
          "name": "",
          "type": "uint256"
        }
      ],
      "name": "idToPoll",
      "outputs": [
        {
          "internalType": "address",
          "name": "creator",
          "type": "address"
        },
        {
          "internalType": "bool",
          "name": "customChoice",
          "type": "bool"
        },
        {
          "internalType": "bool",
          "name": "active",
          "type": "bool"
        },
        {
          "internalType": "uint8",
          "name": "size",
          "type": "uint8"
        },
        {
          "internalType": "uint256",
          "name": "endTime",
          "type": "uint256"
        },
        {
          "internalType": "string",
          "name": "pollData",
          "type": "string"
        }
      ],
      "stateMutability": "view",
      "type": "function"
    },
    {
      "inputs": [
        {
          "internalType": "bool",
          "name": "_customChoice",
          "type": "bool"
        },
        {
          "internalType": "string",
          "name": "_code",
          "type": "string"
        },
        {
          "internalType": "uint16",
          "name": "_time",
          "type": "uint16"
        },
        {
          "internalType": "string",
          "name": "_pollData",
          "type": "string"
        },
        {
          "internalType": "uint8",
          "name": "_size",
          "type": "uint8"
        }
      ],
      "name": "createPoll",
      "outputs": [],
      "stateMutability": "nonpayable",
      "type": "function"
    },
    {
      "inputs": [
        {
          "internalType": "uint256",
          "name": "_id",
          "type": "uint256"
        },
        {
          "internalType": "uint8",
          "name": "_index",
          "type": "uint8"
        }
      ],
      "name": "vote",
      "outputs": [],
      "stateMutability": "nonpayable",
      "type": "function"
    },
    {
      "inputs": [
        {
          "internalType": "uint256",
          "name": "_id",
          "type": "uint256"
        },
        {
          "internalType": "uint8",
          "name": "_index",
          "type": "uint8"
        },
        {
          "internalType": "string",
          "name": "_code",
          "type": "string"
        }
      ],
      "name": "votePrivate",
      "outputs": [],
      "stateMutability": "nonpayable",
      "type": "function"
    },
    {
      "inputs": [
        {
          "internalType": "uint256",
          "name": "_id",
          "type": "uint256"
        },
        {
          "internalType": "string",
          "name": "_newData",
          "type": "string"
        }
      ],
      "name": "voteCustom",
      "outputs": [],
      "stateMutability": "nonpayable",
      "type": "function"
    },
    {
      "inputs": [
        {
          "internalType": "uint256",
          "name": "_id",
          "type": "uint256"
        },
        {
          "internalType": "string",
          "name": "_newData",
          "type": "string"
        },
        {
          "internalType": "string",
          "name": "_code",
          "type": "string"
        }
      ],
      "name": "voteCustomPrivate",
      "outputs": [],
      "stateMutability": "nonpayable",
      "type": "function"
    },
    {
      "inputs": [
        {
          "internalType": "uint256",
          "name": "_id",
          "type": "uint256"
        }
      ],
      "name": "endPoll",
      "outputs": [],
      "stateMutability": "nonpayable",
      "type": "function"
    },
    {
      "inputs": [
        {
          "internalType": "uint256",
          "name": "_id",
          "type": "uint256"
        }
      ],
      "name": "getResult",
      "outputs": [
        {
          "internalType": "uint32[]",
          "name": "",
          "type": "uint32[]"
        }
      ],
      "stateMutability": "view",
      "type": "function"
    }
  ],
  "bytecode": "0x608060405234801561001057600080fd5b50612284806100206000396000f3fe608060405234801561001057600080fd5b50600436106100885760003560e01c8063b99b7e491161005b578063b99b7e4914610111578063d51f51131461012d578063e5b5611414610149578063f43b87781461017e57610088565b80633b3cd1991461008d57806391bec391146100a9578063943e8216146100c5578063995e4339146100e1575b600080fd5b6100a760048036038101906100a291906116b8565b61019a565b005b6100c360048036038101906100be9190611727565b6103f5565b005b6100df60048036038101906100da9190611783565b6107b5565b005b6100fb60048036038101906100f691906117c3565b610ab4565b60405161010891906118be565b60405180910390f35b61012b600480360381019061012691906118e0565b610baf565b005b610147600480360381019061014291906119dd565b610e0a565b005b610163600480360381019061015e91906117c3565b6110ad565b60405161017596959493929190611b86565b60405180910390f35b610198600480360381019061019391906117c3565b6111b8565b005b826004600082815260200190815260200160002060003373ffffffffffffffffffffffffffffffffffffffff1673ffffffffffffffffffffffffffffffffffffffff16815260200190815260200160002060009054906101000a900460ff1615610239576040517f08c379a000000000000000000000000000000000000000000000000000000000815260040161023090611c3a565b60405180910390fd5b836003600082815260200190815260200160002060000160159054906101000a900460ff1661029d576040517f08c379a000000000000000000000000000000000000000000000000000000000815260040161029490611ca6565b60405180910390fd5b6103426001600087815260200190815260200160002080546102be90611cf5565b80601f01602080910402602001604051908101604052809291908181526020018280546102ea90611cf5565b80156103375780601f1061030c57610100808354040283529160200191610337565b820191906000526020600020905b81548152906001019060200180831161031a57829003601f168201915b50505050508461131f565b610381576040517f08c379a000000000000000000000000000000000000000000000000000000000815260040161037890611d73565b60405180910390fd5b3073ffffffffffffffffffffffffffffffffffffffff1663943e821686866040518363ffffffff1660e01b81526004016103bc929190611d93565b600060405180830381600087803b1580156103d657600080fd5b505af11580156103ea573d6000803e3d6000fd5b505050505050505050565b816004600082815260200190815260200160002060003373ffffffffffffffffffffffffffffffffffffffff1673ffffffffffffffffffffffffffffffffffffffff16815260200190815260200160002060009054906101000a900460ff1615610494576040517f08c379a000000000000000000000000000000000000000000000000000000000815260040161048b90611c3a565b60405180910390fd5b826003600082815260200190815260200160002060000160159054906101000a900460ff166104f8576040517f08c379a00000000000000000000000000000000000000000000000000000000081526004016104ef90611ca6565b60405180910390fd5b6003600085815260200190815260200160002060000160149054906101000a900460ff1661055b576040517f08c379a000000000000000000000000000000000000000000000000000000000815260040161055290611e08565b60405180910390fd5b3073ffffffffffffffffffffffffffffffffffffffff163373ffffffffffffffffffffffffffffffffffffffff16146105f15760006001600086815260200190815260200160002080546105ae90611cf5565b9050146105f0576040517f08c379a00000000000000000000000000000000000000000000000000000000081526004016105e790611e74565b60405180910390fd5b5b8260036000868152602001908152602001600020600201908051906020019061061b92919061139c565b5060006003600086815260200190815260200160002060000160169054906101000a900460ff169050600260008681526020019081526020016000208160ff168154811061066c5761066b611e94565b5b906000526020600020906008918282040191900660040281819054906101000a900463ffffffff16809291906106a190611ef2565b91906101000a81548163ffffffff021916908363ffffffff1602179055505060036000868152602001908152602001600020600001601681819054906101000a900460ff16809291906106f390611f1f565b91906101000a81548160ff021916908360ff1602179055505060016004600087815260200190815260200160002060003273ffffffffffffffffffffffffffffffffffffffff1673ffffffffffffffffffffffffffffffffffffffff16815260200190815260200160002060006101000a81548160ff0219169083151502179055507f10a412bf229fbac2408912cb271b8ff9eb39eb72da91dd0c8accab0fb101113585326040516107a6929190611f49565b60405180910390a15050505050565b816004600082815260200190815260200160002060003373ffffffffffffffffffffffffffffffffffffffff1673ffffffffffffffffffffffffffffffffffffffff16815260200190815260200160002060009054906101000a900460ff1615610854576040517f08c379a000000000000000000000000000000000000000000000000000000000815260040161084b90611c3a565b60405180910390fd5b826003600082815260200190815260200160002060000160159054906101000a900460ff166108b8576040517f08c379a00000000000000000000000000000000000000000000000000000000081526004016108af90611ca6565b60405180910390fd5b3073ffffffffffffffffffffffffffffffffffffffff163373ffffffffffffffffffffffffffffffffffffffff161461094e57600060016000868152602001908152602001600020805461090b90611cf5565b90501461094d576040517f08c379a000000000000000000000000000000000000000000000000000000000815260040161094490611e74565b60405180910390fd5b5b60016003600086815260200190815260200160002060000160169054906101000a900460ff1661097e9190611f72565b60ff168360ff16111561099057600080fd5b600260008581526020019081526020016000208360ff16815481106109b8576109b7611e94565b5b906000526020600020906008918282040191900660040281819054906101000a900463ffffffff16809291906109ed90611ef2565b91906101000a81548163ffffffff021916908363ffffffff1602179055505060016004600086815260200190815260200160002060003273ffffffffffffffffffffffffffffffffffffffff1673ffffffffffffffffffffffffffffffffffffffff16815260200190815260200160002060006101000a81548160ff0219169083151502179055507f10a412bf229fbac2408912cb271b8ff9eb39eb72da91dd0c8accab0fb10111358432604051610aa6929190611f49565b60405180910390a150505050565b60606003600083815260200190815260200160002060000160159054906101000a900460ff1615610b1a576040517f08c379a0000000000000000000000000000000000000000000000000000000008152600401610b1190611ff2565b60405180910390fd5b60026000838152602001908152602001600020805480602002602001604051908101604052809291908181526020018280548015610ba357602002820191906000526020600020906000905b82829054906101000a900463ffffffff1663ffffffff1681526020019060040190602082600301049283019260010382029150808411610b665790505b50505050509050919050565b826004600082815260200190815260200160002060003373ffffffffffffffffffffffffffffffffffffffff1673ffffffffffffffffffffffffffffffffffffffff16815260200190815260200160002060009054906101000a900460ff1615610c4e576040517f08c379a0000000000000000000000000000000000000000000000000000000008152600401610c4590611c3a565b60405180910390fd5b836003600082815260200190815260200160002060000160159054906101000a900460ff16610cb2576040517f08c379a0000000000000000000000000000000000000000000000000000000008152600401610ca990611ca6565b60405180910390fd5b610d57600160008781526020019081526020016000208054610cd390611cf5565b80601f0160208091040260200160405190810160405280929190818152602001828054610cff90611cf5565b8015610d4c5780601f10610d2157610100808354040283529160200191610d4c565b820191906000526020600020905b815481529060010190602001808311610d2f57829003601f168201915b50505050508461131f565b610d96576040517f08c379a0000000000000000000000000000000000000000000000000000000008152600401610d8d90611d73565b60405180910390fd5b3073ffffffffffffffffffffffffffffffffffffffff166391bec39186866040518363ffffffff1660e01b8152600401610dd1929190612012565b600060405180830381600087803b158015610deb57600080fd5b505af1158015610dff573d6000803e3d6000fd5b505050505050505050565b601e8160ff161115610e51576040517f08c379a0000000000000000000000000000000000000000000000000000000008152600401610e48906120b4565b60405180910390fd5b610e5b6000611378565b6000610e67600061138e565b90506040518060c001604052803373ffffffffffffffffffffffffffffffffffffffff16815260200187151581526020016001151581526020018360ff168152602001610e1086610eb891906120d4565b61ffff1642610ec79190612110565b8152602001848152506003600083815260200190815260200160002060008201518160000160006101000a81548173ffffffffffffffffffffffffffffffffffffffff021916908373ffffffffffffffffffffffffffffffffffffffff16021790555060208201518160000160146101000a81548160ff02191690831515021790555060408201518160000160156101000a81548160ff02191690831515021790555060608201518160000160166101000a81548160ff021916908360ff1602179055506080820151816001015560a0820151816002019080519060200190610fb192919061139c565b5090505084600160008381526020019081526020016000209080519060200190610fdc92919061139c565b5085611033578160ff1667ffffffffffffffff811115610fff57610ffe61158d565b5b60405190808252806020026020018201604052801561102d5781602001602082028036833780820191505090505b5061107e565b601e67ffffffffffffffff81111561104e5761104d61158d565b5b60405190808252806020026020018201604052801561107c5781602001602082028036833780820191505090505b505b6002600083815260200190815260200160002090805190602001906110a4929190611422565b50505050505050565b60036020528060005260406000206000915090508060000160009054906101000a900473ffffffffffffffffffffffffffffffffffffffff16908060000160149054906101000a900460ff16908060000160159054906101000a900460ff16908060000160169054906101000a900460ff169080600101549080600201805461113590611cf5565b80601f016020809104026020016040519081016040528092919081815260200182805461116190611cf5565b80156111ae5780601f10611183576101008083540402835291602001916111ae565b820191906000526020600020905b81548152906001019060200180831161119157829003601f168201915b5050505050905086565b6003600082815260200190815260200160002060000160009054906101000a900473ffffffffffffffffffffffffffffffffffffffff1673ffffffffffffffffffffffffffffffffffffffff163373ffffffffffffffffffffffffffffffffffffffff161461125c576040517f08c379a0000000000000000000000000000000000000000000000000000000008152600401611253906121b2565b60405180910390fd5b600360008281526020019081526020016000206001015442116112b4576040517f08c379a00000000000000000000000000000000000000000000000000000000081526004016112ab90611ff2565b60405180910390fd5b60006003600083815260200190815260200160002060000160156101000a81548160ff0219169083151502179055507f7eef76533cf0b66f84019dddfb7c15c58dce6fb8200829a6529b19e5340bbd2e81426040516113149291906121d2565b60405180910390a150565b6000816040516020016113329190612237565b60405160208183030381529060405280519060200120836040516020016113599190612237565b6040516020818303038152906040528051906020012014905092915050565b6001816000016000828254019250508190555050565b600081600001549050919050565b8280546113a890611cf5565b90600052602060002090601f0160209004810192826113ca5760008555611411565b82601f106113e357805160ff1916838001178555611411565b82800160010185558215611411579182015b828111156114105782518255916020019190600101906113f5565b5b50905061141e91906114d2565b5090565b828054828255906000526020600020906007016008900481019282156114c15791602002820160005b8382111561148f57835183826101000a81548163ffffffff021916908363ffffffff160217905550926020019260040160208160030104928301926001030261144b565b80156114bf5782816101000a81549063ffffffff021916905560040160208160030104928301926001030261148f565b505b5090506114ce91906114d2565b5090565b5b808211156114eb5760008160009055506001016114d3565b5090565b6000604051905090565b600080fd5b600080fd5b6000819050919050565b61151681611503565b811461152157600080fd5b50565b6000813590506115338161150d565b92915050565b600060ff82169050919050565b61154f81611539565b811461155a57600080fd5b50565b60008135905061156c81611546565b92915050565b600080fd5b600080fd5b6000601f19601f8301169050919050565b7f4e487b7100000000000000000000000000000000000000000000000000000000600052604160045260246000fd5b6115c58261157c565b810181811067ffffffffffffffff821117156115e4576115e361158d565b5b80604052505050565b60006115f76114ef565b905061160382826115bc565b919050565b600067ffffffffffffffff8211156116235761162261158d565b5b61162c8261157c565b9050602081019050919050565b82818337600083830152505050565b600061165b61165684611608565b6115ed565b90508281526020810184848401111561167757611676611577565b5b611682848285611639565b509392505050565b600082601f83011261169f5761169e611572565b5b81356116af848260208601611648565b91505092915050565b6000806000606084860312156116d1576116d06114f9565b5b60006116df86828701611524565b93505060206116f08682870161155d565b925050604084013567ffffffffffffffff811115611711576117106114fe565b5b61171d8682870161168a565b9150509250925092565b6000806040838503121561173e5761173d6114f9565b5b600061174c85828601611524565b925050602083013567ffffffffffffffff81111561176d5761176c6114fe565b5b6117798582860161168a565b9150509250929050565b6000806040838503121561179a576117996114f9565b5b60006117a885828601611524565b92505060206117b98582860161155d565b9150509250929050565b6000602082840312156117d9576117d86114f9565b5b60006117e784828501611524565b91505092915050565b600081519050919050565b600082825260208201905092915050565b6000819050602082019050919050565b600063ffffffff82169050919050565b6118358161181c565b82525050565b6000611847838361182c565b60208301905092915050565b6000602082019050919050565b600061186b826117f0565b61187581856117fb565b93506118808361180c565b8060005b838110156118b1578151611898888261183b565b97506118a383611853565b925050600181019050611884565b5085935050505092915050565b600060208201905081810360008301526118d88184611860565b905092915050565b6000806000606084860312156118f9576118f86114f9565b5b600061190786828701611524565b935050602084013567ffffffffffffffff811115611928576119276114fe565b5b6119348682870161168a565b925050604084013567ffffffffffffffff811115611955576119546114fe565b5b6119618682870161168a565b9150509250925092565b60008115159050919050565b6119808161196b565b811461198b57600080fd5b50565b60008135905061199d81611977565b92915050565b600061ffff82169050919050565b6119ba816119a3565b81146119c557600080fd5b50565b6000813590506119d7816119b1565b92915050565b600080600080600060a086880312156119f9576119f86114f9565b5b6000611a078882890161198e565b955050602086013567ffffffffffffffff811115611a2857611a276114fe565b5b611a348882890161168a565b9450506040611a45888289016119c8565b935050606086013567ffffffffffffffff811115611a6657611a656114fe565b5b611a728882890161168a565b9250506080611a838882890161155d565b9150509295509295909350565b600073ffffffffffffffffffffffffffffffffffffffff82169050919050565b6000611abb82611a90565b9050919050565b611acb81611ab0565b82525050565b611ada8161196b565b82525050565b611ae981611539565b82525050565b611af881611503565b82525050565b600081519050919050565b600082825260208201905092915050565b60005b83811015611b38578082015181840152602081019050611b1d565b83811115611b47576000848401525b50505050565b6000611b5882611afe565b611b628185611b09565b9350611b72818560208601611b1a565b611b7b8161157c565b840191505092915050565b600060c082019050611b9b6000830189611ac2565b611ba86020830188611ad1565b611bb56040830187611ad1565b611bc26060830186611ae0565b611bcf6080830185611aef565b81810360a0830152611be18184611b4d565b9050979650505050505050565b7f416c726561647920766f74656400000000000000000000000000000000000000600082015250565b6000611c24600d83611b09565b9150611c2f82611bee565b602082019050919050565b60006020820190508181036000830152611c5381611c17565b9050919050565b7f566f74696e6720656e6465640000000000000000000000000000000000000000600082015250565b6000611c90600c83611b09565b9150611c9b82611c5a565b602082019050919050565b60006020820190508181036000830152611cbf81611c83565b9050919050565b7f4e487b7100000000000000000000000000000000000000000000000000000000600052602260045260246000fd5b60006002820490506001821680611d0d57607f821691505b60208210811415611d2157611d20611cc6565b5b50919050565b7f436f6465206d69736d6174636800000000000000000000000000000000000000600082015250565b6000611d5d600d83611b09565b9150611d6882611d27565b602082019050919050565b60006020820190508181036000830152611d8c81611d50565b9050919050565b6000604082019050611da86000830185611aef565b611db56020830184611ae0565b9392505050565b7f437573746f6d2063686f69636573206e6f7420616c6c6f776564000000000000600082015250565b6000611df2601a83611b09565b9150611dfd82611dbc565b602082019050919050565b60006020820190508181036000830152611e2181611de5565b9050919050565b7f5072697661746520706f6c6c0000000000000000000000000000000000000000600082015250565b6000611e5e600c83611b09565b9150611e6982611e28565b602082019050919050565b60006020820190508181036000830152611e8d81611e51565b9050919050565b7f4e487b7100000000000000000000000000000000000000000000000000000000600052603260045260246000fd5b7f4e487b7100000000000000000000000000000000000000000000000000000000600052601160045260246000fd5b6000611efd8261181c565b915063ffffffff821415611f1457611f13611ec3565b5b600182019050919050565b6000611f2a82611539565b915060ff821415611f3e57611f3d611ec3565b5b600182019050919050565b6000604082019050611f5e6000830185611aef565b611f6b6020830184611ac2565b9392505050565b6000611f7d82611539565b9150611f8883611539565b925082821015611f9b57611f9a611ec3565b5b828203905092915050565b7f506f6c6c207374696c6c20616374697665000000000000000000000000000000600082015250565b6000611fdc601183611b09565b9150611fe782611fa6565b602082019050919050565b6000602082019050818103600083015261200b81611fcf565b9050919050565b60006040820190506120276000830185611aef565b81810360208301526120398184611b4d565b90509392505050565b7f506f6c6c2063616e20686176652061206d6178696d756d206f66203330206f7060008201527f74696f6e73000000000000000000000000000000000000000000000000000000602082015250565b600061209e602583611b09565b91506120a982612042565b604082019050919050565b600060208201905081810360008301526120cd81612091565b9050919050565b60006120df826119a3565b91506120ea836119a3565b92508161ffff048311821515161561210557612104611ec3565b5b828202905092915050565b600061211b82611503565b915061212683611503565b9250827fffffffffffffffffffffffffffffffffffffffffffffffffffffffffffffffff0382111561215b5761215a611ec3565b5b828201905092915050565b7f4f6e6c7920706f6c6c2063726561746f722063616e20656e6420706f6c6c0000600082015250565b600061219c601e83611b09565b91506121a782612166565b602082019050919050565b600060208201905081810360008301526121cb8161218f565b9050919050565b60006040820190506121e76000830185611aef565b6121f46020830184611aef565b9392505050565b600081905092915050565b600061221182611afe565b61221b81856121fb565b935061222b818560208601611b1a565b80840191505092915050565b60006122438284612206565b91508190509291505056fea2646970667358221220b1ae76c22922702ab34286009cad5adea14d4358b6c7f0b1de641dc42de3721064736f6c634300080a0033",
  "immutableReferences": {},
  "source": "// SPDX-License-Identifier: MIT\r\npragma solidity ^0.8.0;\r\nimport \"@openzeppelin/contracts/utils/Counters.sol\";\r\n\r\ncontract Devote{\r\n    using Counters for Counters.Counter;\r\n    Counters.Counter private _pollId;\r\n\r\n    struct Poll{\r\n        address creator;\r\n        bool customChoice;\r\n        bool active;\r\n        uint8 size;\r\n        uint256 endTime;\r\n        string pollData;\r\n    }\r\n    mapping(uint256=>string) private pollToCode;\r\n    mapping(uint256=> uint32[]) private idToChoices;\r\n    mapping(uint256 => Poll) public idToPoll;\r\n    mapping(uint256 => mapping(address=>bool)) private votesCasted;\r\n    event Vote(uint256 id, address voter);\r\n    event PollEnd(uint256 id, uint256 time);\r\n    \r\n    modifier hasNotVoted (uint256 _id) {\r\n        require(!votesCasted[_id][msg.sender], \"Already voted\");\r\n        _;\r\n    }\r\n    modifier isActive(uint256 _id){\r\n        require(idToPoll[_id].active, \"Voting ended\");\r\n        _;\r\n    }\r\n    \r\n    function checkCode(string memory a, string memory b) private pure returns (bool) {\r\n        return (keccak256(abi.encodePacked((a))) == keccak256(abi.encodePacked((b))));\r\n    }\r\n    function createPoll( bool _customChoice, string memory _code, uint16 _time, string memory _pollData, uint8 _size ) external {\r\n        require(_size<=30, \"Poll can have a maximum of 30 options\");\r\n        _pollId.increment();\r\n        uint256 currentId = _pollId.current();\r\n        idToPoll[currentId] = Poll({ customChoice: _customChoice,\r\n        creator: msg.sender,\r\n        size: _size,\r\n        active: true,\r\n        endTime: block.timestamp + _time*3600, //Time is in hours\r\n        pollData: _pollData });\r\n        pollToCode[currentId] = _code;\r\n        idToChoices[currentId] = _customChoice ? new uint32[](30): new uint32[](_size);\r\n    }\r\n    function vote(uint256 _id, uint8 _index) external hasNotVoted(_id) isActive(_id){\r\n        if(msg.sender != address(this)) require(bytes(pollToCode[_id]).length==0, \"Private poll\");\r\n        require(_index<=idToPoll[_id].size-1);\r\n        idToChoices[_id][_index]++;\r\n        votesCasted[_id][tx.origin] = true;\r\n        emit Vote(_id, tx.origin);\r\n    }\r\n    function votePrivate(uint256 _id, uint8 _index, string memory _code) external hasNotVoted(_id) isActive(_id){\r\n        require(checkCode(pollToCode[_id], _code), \"Code mismatch\");\r\n        this.vote(_id, _index);\r\n    }\r\n    function voteCustom(uint256 _id, string memory _newData) external hasNotVoted(_id) isActive(_id){\r\n        require(idToPoll[_id].customChoice, \"Custom choices not allowed\"); //CODE \r\n        if(msg.sender != address(this)) require(bytes(pollToCode[_id]).length==0, \"Private poll\");\r\n        idToPoll[_id].pollData = _newData;\r\n        uint8 idx = idToPoll[_id].size;\r\n        idToChoices[_id][idx]++;\r\n        idToPoll[_id].size++;\r\n        votesCasted[_id][tx.origin] = true;\r\n        emit Vote(_id, tx.origin);\r\n    }\r\n    function voteCustomPrivate(uint256 _id, string memory _newData, string memory _code) external hasNotVoted(_id) isActive(_id){\r\n        require(checkCode(pollToCode[_id], _code), \"Code mismatch\");\r\n        this.voteCustom(_id, _newData);\r\n    }\r\n    function endPoll(uint256 _id) external {\r\n        require(msg.sender == idToPoll[_id].creator, \"Only poll creator can end poll\");\r\n        require(block.timestamp > idToPoll[_id].endTime, \"Poll still active\");\r\n        idToPoll[_id].active = false;\r\n        emit PollEnd(_id, block.timestamp);\r\n    }\r\n    function getResult(uint256 _id) external view returns (uint32[] memory){\r\n        require(!idToPoll[_id].active, \"Poll still active\");\r\n        return idToChoices[_id];\r\n    }\r\n}",
  "sourcePath": "C:\\Users\\adnan\\Documents\\devote-decentralized-voting\\contracts\\Devote.sol",
  "compiler": {
    "name": "solc",
    "version": "0.8.10+commit.fc410830.Emscripten.clang"
  },
  "schemaVersion": "3.4.3",
  "updatedAt": "2021-12-10T09:58:46.587Z",
  "devdoc": {
    "kind": "dev",
    "methods": {},
    "version": 1
  },
  "userdoc": {
    "kind": "user",
    "methods": {},
    "version": 1
  }
}